:020000040800F2
:10000000B8080020D5010008954A0008390B0008FF
:10001000914A0008750700086956000800000000B2
:10002000000000000000000000000000554C000827
:1000300079070008000000001D4B0008694D00080A
:10004000EF010008EF010008EF010008EF010008D0
:10005000EF010008EF0100087D070008EF0100082C
:10006000EF01000895070008AD070008EF01000840
:10007000EF010008EF010008EF010008EF010008A0
:10008000EF010008EF010008EF010008EF01000890
:10009000EF010008EF010008EF010008EF01000880
:1000A000EF010008EF010008EF010008EF01000870
:1000B000EF0100080D500008EF010008EF010008F3
:1000C000EF010008EF010008EF010008EF01000850
:1000D000EF01000821530008EF010008EF010008BC
:1000E000EF010008EF010008EF010008EF01000830
:1000F000EF010008EF010008EF010008EF01000820
:10010000EF010008EF0100083D500008EF01000872
:10011000EF010008EF010008EF010008EF010008FF
:10012000EF010008EF010008EF010008EF010008EF
:1001300000F002F800F03FF80AA090E8000C8244BA
:100140008344AAF10107DA4501D100F034F8AFF297
:10015000090EBAE80F0013F0010F18BFFB1A43F0A5
:1001600001031847F0590000105A0000103A24BF4C
:1001700078C878C1FAD8520724BF30C830C144BF0C
:1001800004680C607047000000230024002500264E
:10019000103A28BF78C1FBD8520728BF30C148BFEA
:1001A0000B607047782900F04380002070471FB52E
:1001B0001FBD10B510BD00F053FA1146FFF7F7FF51
:1001C00005F0DAFA00F071FA03B4FFF7F2FF03BCAE
:1001D00005F053FA0948804709480047FEE7FEE763
:1001E000FEE7FEE7FEE7FEE7FEE7FEE7FEE7FEE7E7
:1001F00004480549054A064B704700006D4D00084C
:1002000031010008B8020020B8080020B80400201E
:10021000B8040020704700000FB4044910B503AAC9
:10022000029800F0A9F910BC5DF814FB340000201E
:1002300070B504460D4621461068AFF30080218852
:10024000090502D50F4A7A4402E00E4A7A440E327A
:10025000002104F1240305E000F00F060009965D7B
:100260005E54491C0028F7D120780023000704D5EC
:10027000702D02D009B1022311322046BDE8704032
:1002800000F009B9D05800002DE9F05F8946044616
:100290004FF0000ADFF824B1FB44C0F820A020464C
:1002A000E168884700287DD0252806D0D4E90121BF
:1002B0009047206A401C2062F1E700255F462046F7
:1002C000E16888472028064607DB312E05D2B81999
:1002D00010F8200C08B10543F1E7A80701D525F077
:1002E0000405C4F81CA00027C4F818A02A2E09D0C1
:1002F000304605F0BBF938B304EB8708303EC8F848
:10030000186019E059F8041B204604EB870291613C
:10031000E1688847012F064618D1E069002820DAF5
:1003200025F020051DE0D8F8180000EB800006EB52
:1003300040003038C8F818002046E1688847064673
:1003400005F094F90028EED1012F0AD02E2E08D105
:100350002046E16888477F1C0646022F45F02005AD
:10036000C4DBA069002803DA404245F00105A06122
:10037000E80701D025F01005A6B1A6F14100192823
:1003800002D8203645F400654A46314620462560AD
:100390004D46FFF707FF60B1012807D0ED1D25F09E
:1003A000070000E007E000F1080978E705F104091B
:1003B00075E730467AE7206ABDE8F09FA65800004E
:1003C000032A40F2308010F0030C00F0158011F881
:1003D000013BBCF1020F624498BF11F801CB00F859
:1003E000013B38BF11F8013BA2F1040298BF00F8AD
:1003F00001CB38BF00F8013B11F0030300F0CE80C1
:10040000083AC0F0088051F8043B083A51F804CB90
:10041000A0E80810F5E7121D5CBF51F8043B40F856
:10042000043BAFF30080D20724BF11F8013B11F861
:1004300001CB48BF11F8012B24BF00F8013B00F8A5
:1004400001CB48BF00F8012B70474FF00002042990
:10045000C0F0128010F0030C00F0D480CCF1040C3A
:10046000BCF1020F18BF00F8012BA8BF20F8022B27
:10047000A1EB0C0100F0C6B85FEAC17C24BF00F814
:10048000012B00F8012B48BF00F8012B7047704783
:100490007047704770472DE9F0470D4699469246E0
:1004A000044600F124080168880604D5E06921F0BB
:1004B0001001216000E00120A84201DD471B00E09F
:1004C0000027A1697A1902EB0900081AA0612078B7
:1004D000C00602D42046AFF30080002608E0D4E92D
:1004E00001211AF806009047206A401C761C206201
:1004F0004E45F4DB2078C0060AD52046AFF30080D5
:1005000006E0D4E9012130209047206A401C206297
:10051000381EA7F10107F4DC07E0D4E9012118F83F
:1005200005009047206A401C2062281EA5F10105A5
:10053000F3DC2046AFF300802078000602D50220CD
:10054000BDE8F0870120FBE701694A1C02610878D9
:10055000704700B58FB0CDE9013100210591054903
:100560007944CDE9031011466846FFF78DFE0FB0C0
:1005700000BD0000E5FFFFFF074B70B50D467B4453
:10058000FFF7E7FF0446284600F061F810B14FF08E
:10059000FF3070BD204670BDDB51000010B5203A21
:1005A000C0F00B80B1E81850203AA0E81850B1E82C
:1005B0001850A0E81850BFF4F5AF5FEA027C24BFE2
:1005C000B1E81850A0E8185044BF18C918C0BDE8D9
:1005D00010405FEA827C24BF51F8043B40F8043BA2
:1005E00008BF7047D20728BF31F8023B48BF11F857
:1005F000012B28BF20F8023B48BF00F8012B7047B1
:100600004FF0000200B5134694469646203922BFAB
:10061000A0E80C50A0E80C50B1F12001BFF4F7AFF6
:10062000090728BFA0E80C5048BF0CC05DF804EBD8
:10063000890028BF40F8042B08BF704748BF20F846
:10064000022B11F0804F18BF00F8012B7047007B80
:1006500000F08000704700000048704754020020FE
:100660007546FFF7F9FFAE4605006946534620F090
:100670000700854618B020B5FFF7BAFDBDE8204059
:100680004FF000064FF000074FF000084FF0000B4E
:1006900021F00701AC46ACE8C009ACE8C009ACE801
:1006A000C009ACE8C0098D4670470446AFF300802E
:1006B0002046FFF789FD000008B50121082004F05D
:1006C0004FFA4FF48070ADF8000010208DF8030051
:1006D00003208DF802006946044800F006F94FF443
:1006E0008071024800F08CF908BD0000000C014048
:1006F00070B586B005460E4614460121C80404F0C4
:100700001FFA0121102004F02BFA4FF48060ADF89D
:10071000140003208DF8160018208DF8170005A985
:10072000124800F0E2F84FF40060ADF81400042025
:100730008DF8170005A90D4800F0D7F801940020A6
:10074000ADF80800ADF80A00ADF80C00ADF81000E7
:100750000C20ADF80E0001A9054804F0AFFE012100
:10076000034804F043FE06B070BD000000100140D5
:10077000004C004000BFFEE77047000010B50A20A3
:1007800004F0A0FF02480068012000F01BF810BD33
:100790000001214210B50A2004F094FF02480068CD
:1007A000082000F00FF810BD0C01234210B50A20FC
:1007B00004F088FF02480068102000F003F810BD24
:1007C00010012342014908607047000014040140F1
:1007D00051B18200A2F1C042126842F001038200CE
:1007E000A2F1C042136009E08200A2F1C042126887
:1007F000034B1A408300A3F1C0431A607047000006
:10080000FEFF0F00D0E901121143C26811430269D3
:1008100011434269114382691143C2691143026A5B
:100820001143426A1143826A1143C26A1143026B47
:10083000114302689200A2F1C04211608168082948
:100840000BD101688900A1F1C041096841F0400263
:1008500001688900A1F1C0410A60416B0968426BDF
:10086000526841EA0211426B926841EA0221426BEE
:10087000928941EA0241426B128A41EA0251426B7B
:10088000127D41EA0261426B926911430268521C77
:100890009200A2F1C0421160C16AB1F5804F1BD134
:1008A000816B0968826B526841EA0211826B92681F
:1008B00041EA0221826B128A41EA0251826B127D67
:1008C00041EA0261826B9269114302689200A2F1CF
:1008D000C042C2F8041107E06FF07042016889005D
:1008E000A1F1C041C1F8042170472DE9F041024651
:1008F00000250026002000230024002791F803C0D3
:100900000CF00F0591F803C00CF0100CBCF1000FB7
:1009100003D091F802C04CEA050591F800C0BCF183
:10092000000F31D0146800202BE04FF0010C0CFABE
:1009300000F3B1F800C00CEA03069E4220D1830008
:100940004FF00F0C0CFA03F7BC4305FA03FC4CEA1A
:10095000040491F803C0BCF1280F06D14FF0010C3C
:100960000CFA00FCC2F814C00AE091F803C0BCF114
:10097000480F05D14FF0010C0CFA00FCC2F810C072
:10098000401C0828D1D31460B1F800C0BCF1FF0F9F
:1009900034DD546800202EE000F1080C4FF001080F
:1009A00008FA0CF3B1F800C00CEA03069E4221D10C
:1009B00083004FF00F0C0CFA03F7BC4305FA03FC5D
:1009C0004CEA040491F803C0BCF1280F05D100F1F2
:1009D000080C08FA0CF8C2F8148091F803C0BCF1B6
:1009E000480F07D100F1080C4FF0010808FA0CF885
:1009F000C2F81080401C0828CED35460BDE8F081B6
:100A000041617047016170472DE9F04389B00646A6
:100A10000F4614461D464FF6FF78C14601210820B7
:100A200004F08EF80121042004F09AF80420ADF8B7
:100A3000200028208DF8230008A92848FFF755FF3B
:100A400004212648FFF7DCFF44B905EB8500400090
:100A5000401E1FFA80F841F61F4906E0012C04D120
:100A6000681E1FFA80F84FF04709ADF81880ADF8FE
:100A700014900020ADF81A00ADF8160005A918482A
:100A800004F0FCFB0820ADF804000020ADF80600DF
:100A90000120ADF808000020ADF80A000320ADF8F1
:100AA0000C0001A90E4804F04FFB32208DF8100015
:100AB0008DF811608DF8127001208DF8130004A8D4
:100AC00003F0EAFF01220921054804F093FB01210C
:100AD000034804F018FB09B0BDE8F08300080140AA
:100AE000000C00401CB50121042004F039F8082056
:100AF000ADF8040003208DF8060010208DF80700E3
:100B000001A90C48FFF7F1FE08210A48FFF778FF1A
:100B10004020ADF8000003208DF8020010208DF871
:100B2000030069460348FFF7E0FE40210148FFF754
:100B300067FF1CBD0008014000BFFEE770B504461A
:100B4000002617480588408845431548808846F6A2
:100B50000401884216D112488079012812D1002060
:100B60000F4988712A2048812B208881002108465E
:100B700003F066FE01200A4988712B2048812A2053
:100B8000888103E00021084603F05AFE03F042FF8B
:100B9000002602E003480480761CAE42FAD370BD02
:100BA0007C0100200008006C10B50446002C66D1C2
:100BB0006C498871F02008804FF4A0704880084686
:100BC000808849F2413188420BD06648808846F6D9
:100BD0000401884205D06348808845F2103188427C
:100BE0001AD12C205F4908812A2048812B20888136
:100BF0000846808846F60401884205D05948808816
:100C000045F21031884206D14FF4A0705549088052
:100C10004FF4F0704880A1E05248808845F21051AE
:100C2000884210D14FF430504E4908814FF428507B
:100C300048814FF42C5088814FF4F07008804FF4B5
:100C4000487048808AE04748808841F663118842AE
:100C50000DD12C20434908812B2048812A208881EE
:100C60004FF4F07008804FF44870488076E02220FE
:100C70003C49088120204881212088816EE00120A4
:100C8000384988714FF4A0700880F02048800846E9
:100C9000808849F24131884205D03248808845F247
:100CA0001031884207D12C202E4908812A20488102
:100CB0002B2088813FE02B48808846F6040188423B
:100CC00007D12C20274908812B2048812A208881A0
:100CD00031E02448808845F21051884210D14FF409
:100CE0003050204908814FF4285048814FF42C504F
:100CF00088814FF4487008804FF4F07048801AE003
:100D00001848808841F6631188420DD12C2015497E
:100D100008812A2048812B2088814FF44870088060
:100D20004FF4F070488006E022200E49088121200F
:100D30004881202088810B48808846F6040188423B
:100D400005D00848808845F21031884206D14FF41A
:100D5000F070044908804FF4A0704880002003F030
:100D6000F9FB10BD7C01002000B59FB001210802F5
:100D700003F0D6FE01214FF4B47003F0F1FE012020
:100D8000ADF8780010208DF87B0003208DF87A00F4
:100D90001EA9FE48FFF7A9FD4CF23370ADF87800AC
:100DA00018208DF87B0003208DF87A001EA9F848E2
:100DB000FFF79BFD4FF68070ADF8780018208DF896
:100DC0007B0003208DF87A001EA9F248FFF78DFD05
:100DD00041F20100ADF8780018208DF87B00032067
:100DE0008DF87A001EA9EC48FFF77FFD01200890DE
:100DF000002009900F200A9000200B900C900D907D
:100E00000E90019002900320039000200490059022
:100E10000690079006200F9000201090119010204F
:100E200012900020139015901490169017904FF484
:100E300080501890002019904FF480401A900020A4
:100E40001B9008A81C9001A81D900FA8FFF7DAFCC2
:100E500001210620FFF7BCFC322004F033FC002007
:100E600003F042FBCD49888008468088FF280ADBD2
:100E7000084680884FF6FF71884204D0C7488088B2
:100E8000B0F5134F7ED1D32003F0BEFD03F022FB5B
:100E9000C249888003F01EFBC049888003F01AFB1A
:100EA000BE498880084680884FF6FF7101EA00201D
:100EB000BA49888003F00EFBB84989880843B749CE
:100EC00088800846808849F2413188425AD0BF2044
:100ED00003F09AFD03F0FEFAB049888003F0FAFAB5
:100EE000AE49888003F0F6FAAC49888003F0F2FA44
:100EF000AA498880084680884FF6FF7101EA0020E1
:100F0000A649888003F0E6FAA44989880843A349E2
:100F100088800846808846F6040188427AD0D4202A
:100F200003F072FD03F0D6FA9C49888003F0D2FAF0
:100F30009A49888003F0CEFA9849888008468088CC
:100F40004FF6FF7101EA00209449888003F0C2FA4D
:100F5000924989880843914988800846808845F2EB
:100F60001031884256D04FF45A4003F04DFD03F043
:100F7000B1FA8A4988804FF45B4003F045FD03F0E5
:100F8000A9FA00E046E085498880084680884FF647
:100F9000FF7101EA0020814988804FF45C4003F032
:100FA00033FD03F097FA7D49898808437B4988809F
:100FB00008468088B0F5004F02D145F21050888075
:100FC0007648808845F21051884223D0A12003F052
:100FD0001BFD03F07FFA7149888003F07BFA6F49AB
:100FE0008880084680884FF6FF7101EA00206B492F
:100FF000888003F06FFA69498988084367498880C7
:101000000846808845F26171884203D141F6631039
:10101000624988806148818861A0FFF7FDF85F48D8
:10102000808849F2413188427ED1CF2003F0ECFC28
:10103000002003F0E3FCC12003F0E0FC302003F0CB
:10104000DDFCED2003F0E0FC642003F0D7FC03207E
:1010500003F0D4FC122003F0D1FC812003F0CEFC7D
:10106000E82003F0D1FC852003F0C8FC102003F039
:10107000C5FC7A2003F0C2FCCB2003F0C5FC39206C
:1010800003F0BCFC2C2003F0B9FC002003F0B6FCFC
:10109000342003F0B3FC022003F0B0FCF72003F08F
:1010A000B3FC202003F0AAFCEA2003F0ADFC0020F2
:1010B00003F0A4FC002003F0A1FCC02003F0A4FC7A
:1010C0001B2003F09BFCC12003F09EFC012003F0D9
:1010D00095FCC52003F098FC302003F08FFC3020F5
:1010E00003F08CFCC72003F08FFCB72003F086FCD4
:1010F000362003F089FC482003F080FC3A2003F0FE
:1011000083FC552003F07AFCB12003F07DFC002025
:1011100003F074FC1A2003F071FCB62003F074FC99
:101120000A2003F06BFC00E0AAE0A22003F066FCBA
:10113000F22003F069FC002003F060FC262003F09D
:1011400063FC012003F05AFCE02003F05DFC0F205B
:1011500003F054FC2A2003F051FC282003F04EFC3D
:10116000082003F04BFC0E2003F048FC082003F09D
:1011700045FC542003F042FCA92003F03FFC43202F
:1011800003F03CFC0A2003F039FC11E0000C0140A4
:101190000014014000180140002001407C010020A3
:1011A000204C43442049443A25780D0A00000000B1
:1011B0000F2003F023FC002003F020FC002003F0AC
:1011C0001DFC002003F01AFC002003F017FCE120B6
:1011D00003F01AFC002003F011FC152003F00EFCB4
:1011E000172003F00BFC072003F008FC112003F08C
:1011F00005FC062003F002FC2B2003F0FFFB562029
:1012000003F0FCFB3C2003F0F9FB052003F0F6FBA8
:10121000102003F0F3FB0F2003F0F0FB3F2003F05E
:10122000EDFB3F2003F0EAFB0F2003F0E7FB2B2050
:1012300003F0EAFB002003F0E1FB002003F0DEFBFB
:10124000012003F0DBFB3F2003F0D8FB2A2003F052
:10125000DBFB002003F0D2FB002003F0CFFB0020DB
:1012600003F0CCFBEF2003F0C9FB112003F0CCFB13
:10127000782004F027FA292003F0C6FB03F01AB9FE
:10128000FE48808846F6040188427CD1112003F094
:10129000BBFB142004F016FAD02003F0B5FB0720A6
:1012A00003F0ACFB422003F0A9FB1D2003F0A6FBDA
:1012B000D12003F0A9FB002003F0A0FB1A2003F0CB
:1012C0009DFB092003F09AFBD22003F09DFB012037
:1012D00003F094FB222003F091FBC02003F094FB69
:1012E000102003F08BFB3B2003F088FB002003F071
:1012F00085FB022003F082FB112003F07FFBC52059
:1013000003F082FB032003F079FBC82003F07CFB91
:10131000002003F073FB252003F070FB212003F075
:101320006DFB052003F06AFB002003F067FB0A2039
:1013300003F064FB652003F061FB252003F05EFBF6
:10134000772003F05BFB502003F058FB0F2003F0E5
:1013500055FB002003F052FBF82003F055FB012061
:1013600003F04CFBFE2003F04FFB002003F046FB94
:10137000022003F043FB202003F046FB362003F05D
:1013800043FB082000E02CE003F038FB3A2003F098
:101390003BFB552003F032FB2B2003F035FB0020F4
:1013A00003F02CFB002003F029FB012003F026FBB7
:1013B0003F2003F023FB2A2003F026FB002003F04C
:1013C0001DFB002003F01AFB012003F017FBDF20B8
:1013D00003F014FB782004F075F9292003F014FBC6
:1013E0004CE7A648808845F21031884240F07C875F
:1013F000ED2003F009FB012003F000FBFE2003F0C9
:10140000FDFAEE2003F000FBDE2003F0F7FA2120C6
:1014100003F0F4FAF12003F0F7FA012003F0EEFAFA
:10142000DF2003F0F1FA102003F0E8FAC42003F003
:10143000EBFA8F2003F0E2FAC62003F0E5FA002071
:1014400003F0DCFAE22003F0D9FAE22003F0D6FA46
:10145000E22003F0D3FABF2003F0D6FAAA2003F06B
:10146000CDFAB02003F0D0FA0D2003F0C7FA002027
:1014700003F0C4FA0D2003F0C1FA002003F0BEFA15
:10148000112003F0BBFA002003F0B8FA192003F092
:10149000B5FA002003F0B2FA212003F0AFFA0020E1
:1014A00003F0ACFA2D2003F0A9FA002003F0A6FA0D
:1014B0003D2003F0A3FA002003F0A0FA5D2003F022
:1014C0009DFA002003F09AFA5D2003F097FA0020BD
:1014D00003F094FAB12003F097FA802003F08EFA1B
:1014E000002003F08BFA8B2003F088FA002003F031
:1014F00085FA962003F082FA002003F07FFAB220EA
:1015000003F082FA002003F079FA002003F076FA63
:10151000022003F073FA002003F070FA032003F0B6
:101520006DFA002003F06AFAB32003F06DFA002090
:1015300003F064FA002003F061FA002003F05EFA81
:10154000002003F05BFA002003F058FA002003F0BB
:1015500055FA002003F052FA002003F04FFA002061
:1015600003F04CFA002003F049FA002003F046FA99
:10157000002003F043FA002003F040FA002003F0BB
:101580003DFA002003F03AFA002003F037FA002079
:1015900003F034FA002003F031FA002003F02EFAB1
:1015A000002003F02BFA002003F028FA002003F0BB
:1015B00025FA002003F022FA002003F01FFAB420DD
:1015C00003F022FA8B2003F019FA002003F016FA38
:1015D000962003F013FA002003F010FAA12003F084
:1015E0000DFA002003F00AFAB52003F00DFA0220EC
:1015F00003F004FA002003F001FA032003F0FEF9DF
:10160000002003F0FBF9042003F0F8F9002003F0B8
:10161000F5F9B62003F0F8F9002003F0EFF9002007
:1016200003F0ECF9B72003F0EFF9002003F0E6F93E
:10163000002003F0E3F93F2003F0E0F9002003F07D
:10164000DDF95E2003F0DAF9002003F0D7F9642019
:1016500003F0D4F9002003F0D1F98C2003F0CEF987
:10166000002003F0CBF9AC2003F0C8F9002003F010
:10167000C5F9DC2003F0C2F9002001E07C01002064
:1016800003F0BCF9702003F0B9F9002003F0B6F9BB
:10169000902003F0B3F9002003F0B0F9EB2003F041
:1016A000ADF9002003F0AAF9DC2003F0A7F900202F
:1016B00003F0A4F9B82003F0A7F9002003F09EF985
:1016C000002003F09BF9002003F098F9002003F0BC
:1016D00095F9002003F092F9002003F08FF9002023
:1016E00003F08CF9002003F089F9BA2003F08CF99B
:1016F000242003F083F9002003F080F9002003F098
:101700007DF9002003F07AF9C12003F07DF9202053
:1017100003F074F9002003F071F9542003F06EF91E
:10172000002003F06BF9FF2003F068F9002003F0BC
:1017300065F9C22003F068F90A2003F05FF9002080
:1017400003F05CF9042003F059F9002003F056F986
:10175000C32003F059F93C2003F050F9002003F0B6
:101760004DF93A2003F04AF9002003F047F93920F7
:1017700003F044F9002003F041F9372003F03EF96B
:10178000002003F03BF93C2003F038F9002003F07F
:1017900035F9362003F032F9002003F02FF932201A
:1017A00003F02CF9002003F029F92F2003F026F98B
:1017B000002003F023F92C2003F020F9002003F08F
:1017C0001DF9292003F01AF9002003F017F926204B
:1017D00003F014F9002003F011F9242003F00EF9AE
:1017E000002003F00BF9242003F008F9002003F097
:1017F00005F9232003F002F9002003F0FFF83C2054
:1018000003F0FCF8002003F0F9F8362003F0F6F8B6
:10181000002003F0F3F8322003F0F0F8002003F08A
:10182000EDF82F2003F0EAF8002003F0E7F82C2071
:1018300003F0E4F8002003F0E1F8292003F0DEF8DB
:10184000002003F0DBF8262003F0D8F8002003F096
:10185000D5F8242003F0D2F8002003F0CFF824209C
:1018600003F0CCF8002003F0C9F8232003F0C6F8F9
:10187000002003F0C3F8C42003F0C6F8622003F090
:10188000BDF8002003F0BAF8052003F0B7F80020F7
:1018900003F0B4F8842003F0B1F8002003F0AEF8B0
:1018A000F02003F0ABF8002003F0A8F8182003F0B4
:1018B000A5F8002003F0A2F8A42003F09FF8002070
:1018C00003F09CF8182003F099F8002003F096F834
:1018D000502003F093F8002003F090F80C2003F060
:1018E0008DF8002003F08AF8172003F087F8002015
:1018F00003F084F8952003F081F8002003F07EF8CF
:10190000F32003F07BF8002003F078F8E62003F0E2
:1019100075F8002003F072F8C52003F075F8322046
:1019200003F06CF8002003F069F8442003F066F837
:10193000002003F063F8652003F060F8002003F056
:101940005DF8762003F05AF8002003F057F888205D
:1019500003F054F8002003F051F8C62003F054F8C7
:10196000202003F04BF8002003F048F8172003F084
:1019700045F8002003F042F8012003F03FF8002072
:1019800003F03CF8C72003F03FF8002003F036F8DE
:10199000002003F033F8002003F030F8002003F0BB
:1019A0002DF8C82003F030F8002003F027F80020BD
:1019B00003F024F8002003F021F8002003F01EF8C3
:1019C000C92003F021F8002003F018F8002003F0EC
:1019D00015F8002003F012F8002003F00FF80020A3
:1019E00003F00CF8002003F009F8002003F006F8DB
:1019F000002003F003F8002003F000F8002002F0BC
:101A0000FDFF002002F0FAFF002002F0F7FF0020A7
:101A100002F0F4FF002002F0F1FF002002F0EEFFE0
:101A2000002002F0EBFFE02002F0EEFF162002F0B3
:101A3000E5FF002002F0E2FF1C2002F0DFFF0020A3
:101A400002F0DCFF212002F0D9FF002002F0D6FFD7
:101A5000362002F0D3FF002002F0D0FF462002F033
:101A6000CDFF002002F0CAFF522002F0C7FF002085
:101A700002F0C4FF642002F0C1FF002002F0BEFFAC
:101A80007A2002F0BBFF002002F0B8FF8B2002F0AA
:101A9000B5FF002002F0B2FF992002F0AFFF002056
:101AA00002F0ACFFA82002F0A9FF002002F0A6FF80
:101AB000B92002F0A3FF002002F0A0FFC42002F032
:101AC0009DFF002002F09AFFCA2002F097FF00203D
:101AD00002F094FFD22002F091FF002002F08EFF6E
:101AE000D92002F08BFF002002F088FFE02002F0F6
:101AF00085FF002002F082FFF32002F07FFF00202C
:101B000002F07CFFE12002F07FFF162002F076FF5A
:101B1000002002F073FF1C2002F070FF002002F092
:101B20006DFF222002F06AFF002002F067FF3620DE
:101B300002F064FF002002F061FF452002F05EFF2A
:101B4000002002F05BFF522002F058FF002002F05C
:101B500055FF642002F052FF002002F04FFF7A2070
:101B600002F04CFF002002F049FF8B2002F046FFFC
:101B7000002002F043FF992002F040FF002002F015
:101B80003DFFA82002F03AFF002002F037FFB92005
:101B900002F034FF002002F031FFC42002F02EFFDB
:101BA000002002F02BFFCA2002F028FF002002F0E4
:101BB00025FFD22002F022FF002002F01FFFD820D4
:101BC00002F01CFF002002F019FFE02002F016FFD7
:101BD000002002F013FFF32002F010FF002002F0BB
:101BE0000DFFE22002F010FF052002F007FF0020A9
:101BF00002F004FF0B2002F001FF002002F0FEFEC5
:101C00001B2002F0FBFE002002F0F8FE342002F060
:101C1000F5FE002002F0F2FE442002F0EFFE00206C
:101C200002F0ECFE4F2002F0E9FE002002F0E6FE9A
:101C3000612002F0E3FE002002F0E0FE792002F0D5
:101C4000DDFE002002F0DAFE882002F0D7FE002040
:101C500002F0D4FE972002F0D1FE002002F0CEFE6A
:101C6000A62002F0CBFE002002F0C8FEB72002F052
:101C7000C5FE002002F0C2FEC22002F0BFFE00201E
:101C800002F0BCFEC72002F0B9FE002002F0B6FE52
:101C9000D12002F0B3FE002002F0B0FED62002F008
:101CA000ADFE002002F0AAFEDD2002F0A7FE00201B
:101CB00002F0A4FEF32002F0A1FE002002F09EFE3E
:101CC000E32002F0A1FE052002F098FE002002F0C1
:101CD00095FE0A2002F092FE002002F08FFE1C20EA
:101CE00002F08CFE002002F089FE332002F086FE16
:101CF000002002F083FE442002F080FE002002F06B
:101D00007DFE502002F07AFE002002F077FE622075
:101D100002F074FE002002F071FE782002F06EFEE8
:101D2000002002F06BFE882002F068FE002002F026
:101D300065FE972002F062FE002002F05FFEA62002
:101D400002F05CFE002002F059FEB72002F056FEC1
:101D5000002002F053FEC22002F050FE002002F0EC
:101D60004DFEC72002F04AFE002002F047FED120BF
:101D700002F044FE002002F041FED52002F03EFEBB
:101D8000002002F03BFEDD2002F038FE002002F0D1
:101D900035FEF32002F032FE002002F02FFEE42098
:101DA00002F032FE012002F029FE002002F026FEA1
:101DB000012002F023FE002002F020FE022002F0AB
:101DC0001DFE002002F01AFE2A2002F017FE00205D
:101DD00002F014FE3C2002F011FE002002F00EFE84
:101DE0004B2002F00BFE002002F008FE5D2002F006
:101DF00005FE002002F002FE742002F0FFFD00202C
:101E000002F0FCFD842002F0F9FD002002F0F6FD56
:101E1000932002F0F3FD002002F0F0FDA22002F07A
:101E2000EDFD002002F0EAFDB32002F0E7FD002006
:101E300002F0E4FDBE2002F0E1FD002002F0DEFD34
:101E4000C42002F0DBFD002002F0D8FDCD2002F01E
:101E5000D5FD002002F0D2FDD32002F0CFFD0020FE
:101E600002F0CCFDDD2002F0C9FD002002F0C6FD2D
:101E7000F32002F0C3FD002002F0C0FDE52002F0D7
:101E8000C3FD002002F0BAFD002002F0B7FD0020E3
:101E900002F0B4FD002002F0B1FD022002F0AEFD20
:101EA000002002F0ABFD292002F0A8FD002002F086
:101EB000A5FD3C2002F0A2FD002002F09FFD4B207A
:101EC00002F09CFD002002F099FD5D2002F096FDDD
:101ED000002002F093FD742002F090FD002002F03B
:101EE0008DFD842002F08AFD002002F087FD932002
:101EF00002F084FD002002F081FDA22002F07EFDB0
:101F0000002002F07BFDB32002F078FD002002F0FB
:101F100075FDBE2002F072FD002002F06FFDC420AE
:101F200002F06CFD002002F069FDCD2002F066FD9C
:101F3000002002F063FDD32002F060FD002002F0DB
:101F40005DFDDC2002F05AFD002002F057FDF32079
:101F500002F054FD002002F051FDE62002F054FD95
:101F6000112002F04BFD002002F048FD342002F069
:101F700045FD002002F042FD562002F03FFD00200A
:101F800002F03CFD762002F039FD002002F036FD23
:101F9000772002F033FD002002F030FD662002F0D1
:101FA0002DFD002002F02AFD882002F027FD0020F0
:101FB00002F024FD992002F021FD002002F01EFD18
:101FC000BB2002F01BFD002002F018FD992002F05A
:101FD00015FD002002F012FD662002F00FFD00202A
:101FE00002F00CFD552002F009FD002002F006FD74
:101FF000552002F003FD002002F000FD452002F014
:10200000FDFC002002F0FAFC432002F0F7FC002067
:1020100002F0F4FC442002F0F1FC002002F0EEFC9F
:10202000E72002F0F1FC322002F0E8FC002002F090
:10203000E5FC552002F0E2FC002002F0DFFC7620F7
:1020400002F0DCFC002002F0D9FC662002F0D6FC95
:10205000002002F0D3FC672002F0D0FC002002F048
:10206000CDFC672002F0CAFC002002F0C7FC8720EC
:1020700002F0C4FC002002F0C1FC992002F0BEFC7A
:10208000002002F0BBFCBB2002F0B8FC002002F0F4
:10209000B5FC992002F0B2FC002002F0AFFC7720E2
:1020A00002F0ACFC002002F0A9FC442002F0A6FCE7
:1020B000002002F0A3FC562002F0A0FC002002F059
:1020C0009DFC232002F09AFC002002F097FC3320B4
:1020D00002F094FC002002F091FC452002F08EFCFE
:1020E000002002F08BFCE82002F08EFC002002F0C1
:1020F00085FC002002F082FC992002F07FFC002089
:1021000002F07CFC872002F079FC002002F076FCD3
:10211000882002F073FC002002F070FC772002F0AF
:102120006DFC002002F06AFC662002F067FC0020D3
:1021300002F064FC882002F061FC002002F05EFCEA
:10214000AA2002F05BFC002002F058FCBB2002F049
:1021500055FC002002F052FC992002F04FFC0020B8
:1021600002F04CFC662002F049FC002002F046FC24
:10217000552002F043FC002002F040FC552002F004
:102180003DFC002002F03AFC442002F037FC002025
:1021900002F034FC442002F031FC002002F02EFC5E
:1021A000552002F02BFC002002F028FCE92002F070
:1021B0002BFCAA2002F022FC002002F01FFC0020D1
:1021C00002F01CFC002002F019FC002002F01CFCB4
:1021D000AA2002F013FCCF2002F016FC002002F02F
:1021E0000DFC002002F00AFC002002F007FC002099
:1021F00002F004FC002002F001FC002002F0FEFBD3
:10220000002002F0FBFB002002F0F8FB002002F0AF
:10221000F5FB002002F0F2FB002002F0EFFB0020B3
:1022200002F0ECFB002002F0E9FB002002F0E6FBEC
:10223000002002F0E3FB002002F0E0FB002002F0AF
:10224000DDFBF02002F0E0FB002002F0D7FB502085
:1022500002F0D4FB002002F0D1FB002002F0CEFB04
:10226000002002F0CBFBF32002F0CEFB002002F0B6
:10227000C5FBF92002F0C8FB062002F0BFFB1020CE
:1022800002F0BCFB292002F0B9FB002002F0B6FBF3
:102290003A2002F0B9FB552002F0B0FB112002F009
:1022A000B3FB642003F00EFA292002F0ADFB3520C9
:1022B00002F0AAFB002002F0A1FB512002F0A4FBD7
:1022C000FF2002F09BFB532002F09EFB2C2002F02B
:1022D00095FB552002F098FB822002F08FFB2C200A
:1022E00002F092FB02F0E6B8FE48808845F21051F9
:1022F00088427DD155214FF4704002F095FBAA2110
:102300004FF2010002F090FB52214FF2020002F066
:102310008BFB08214FF2030002F086FB01214FF2F4
:10232000040002F081FB0D214FF4304002F07CFBF1
:102330000D214BF2010002F077FB0D214BF2020060
:1023400002F072FB34214FF4364002F06DFB342171
:102350004BF2016002F068FB34214BF2026002F0A4
:1023600063FB0D214FF4314002F05EFB0D214BF277
:10237000011002F059FB0D214BF2021002F054FB48
:1023800034214FF4374002F04FFB34214BF20170FF
:1023900002F04AFB34214BF2027002F045FB0021AF
:1023A0004FF4324002F040FB00214BF2012002F0DA
:1023B0003BFB00214BF2022002F036FB24214FF4BC
:1023C000384002F031FB24214BF6010002F02CFBD7
:1023D00024214BF6020002F027FB01214FF43F407D
:1023E00002F022FB0F214FF4334002F01DFB00E00E
:1023F000FDE30F214BF2013002F016FB0F214BF2EF
:10240000023002F011FB34214FF4394002F00CFB92
:1024100034214BF6011002F007FB34214BF6021079
:1024200002F002FB08214FF4354002F0FDFA0821CA
:102430004BF2015002F0F8FA08214BF2025002F080
:10244000F3FA03214FF4424002F0EEFA24214FF454
:102450003A4002F0E9FA24214BF6012002F0E4FAB6
:1024600024214BF6022002F0DFFA00214FF43C4019
:1024700002F0DAFA78214BF6014002F0D5FA002199
:102480004BF6024002F0D0FA00214FF43D4002F03A
:10249000CBFA78214BF6015002F0C6FA00214BF638
:1024A000025002F0C1FA00214FF43E4002F0BCFAA3
:1024B00064214BF6016002F0B7FA00214FF451405D
:1024C00002F0B2FA33214DF2011002F0ADFA002110
:1024D0004DF2021002F0A8FA34214DF2031002F07E
:1024E000A3FA00214DF2041002F09EFA3A214DF2B7
:1024F000051002F099FA00214DF2061002F094FA4C
:102500004A214DF2071002F08FFA00214DF2081017
:1025100002F08AFA5C214DF2091002F085FA0021DE
:102520004DF20A1002F080FA81214DF20B1002F0F8
:102530007BFA00214DF20C1002F076FAA6214DF242
:102540000D1002F071FA00214DF20E1002F06CFA3B
:10255000E5214DF20F1002F067FA01214DF2101043
:1025600002F062FA13214DF2111002F05DFA01211E
:102570004DF2121002F058FA54214DF2131002F0ED
:1025800053FA01214DF2141002F04EFA82214DF25D
:10259000151002F049FA01214DF2161002F044FA2A
:1025A000CA214DF2171002F03FFA02214DF2181025
:1025B00002F03AFA00214DF2191002F035FA022128
:1025C0004DF21A1002F030FA01214DF21B1002F008
:1025D0002BFA02214DF21C1002F026FA34214DF2A2
:1025E0001D1002F021FA02214DF21E1002F01CFA19
:1025F00067214DF21F1002F017FA02214DF2201050
:1026000002F012FA84214DF2211002F00DFA02219B
:102610004DF2221002F008FAA4214DF2231002F02C
:1026200003FA02214DF2241002F0FEF9B7214DF217
:10263000251002F0F9F902214DF2261002F0F4F90A
:10264000CF214DF2271002F0EFF902214DF22810B0
:1026500002F0EAF9DE214DF2291002F0E5F902213B
:102660004DF22A1002F0E0F9F2214DF22B1002F0A7
:10267000DBF902214DF22C1002F0D6F9FE214DF2C9
:102680002D1002F0D1F903214DF22E1002F0CCF9F9
:1026900010214DF22F1002F0C7F903214DF2301036
:1026A00002F0C2F933214DF2311002F0BDF90321DD
:1026B0004DF2321002F0B8F96D214DF2331002F0F4
:1026C000B3F900214FF4524002F0AEF933214DF23C
:1026D000012002F0A9F900214DF2022002F0A4F934
:1026E000342101E07C0100204DF2032002F09CF92E
:1026F00000214DF2042002F097F93A214DF2052015
:1027000002F092F900214DF2062002F08DF94A21E3
:102710004DF2072002F088F900214DF2082002F066
:1027200083F95C214DF2092002F07EF900214DF27F
:102730000A2002F079F981214DF20B2002F074F9A0
:1027400000214DF20C2002F06FF9A6214DF20D2070
:1027500002F06AF900214DF20E2002F065F9E52140
:102760004DF20F2002F060F901214DF2102002F02D
:102770005BF913214DF2112002F056F901214DF2BF
:10278000122002F051F954214DF2132002F04CF9BD
:1027900001214DF2142002F047F982214DF215205B
:1027A00002F042F901214DF2162002F03DF9CA2152
:1027B0004DF2172002F038F902214DF2182002F0F4
:1027C00033F900214DF2192002F02EF902214DF2C9
:1027D0001A2002F029F901214DF21B2002F024F900
:1027E00002214DF21C2002F01FF934214DF21D2070
:1027F00002F01AF902214DF21E2002F015F96721AC
:102800004DF21F2002F010F902214DF2202002F0BB
:102810000BF984214DF2212002F006F902214DF23C
:10282000222002F001F9A4214DF2232002F0FCF84D
:1028300002214DF2242002F0F7F8B7214DF22520B5
:1028400002F0F2F802214DF2262002F0EDF8CF213D
:102850004DF2272002F0E8F802214DF2282002F084
:10286000E3F8DE214DF2292002F0DEF802214DF2DC
:102870002A2002F0D9F8F2214DF22B2002F0D4F8F0
:1028800002214DF22C2002F0CFF8FE214DF22D2036
:1028900002F0CAF803214DF22E2002F0C5F81021F3
:1028A0004DF22F2002F0C0F803214DF2302002F04B
:1028B000BBF833214DF2312002F0B6F803214DF27E
:1028C000322002F0B1F86D214DF2332002F0ACF865
:1028D00000214FF4534002F0A7F833214DF20130AC
:1028E00002F0A2F800214DF2023002F09DF83421EE
:1028F0004DF2033002F098F800214DF2043002F05E
:1029000093F83A214DF2053002F08EF800214DF295
:10291000063002F089F84A214DF2073002F084F8BF
:1029200000214DF2083002F07FF85C214DF20930B1
:1029300002F07AF800214DF20A3002F075F8812198
:102940004DF20B3002F070F800214DF20C3002F025
:102950006BF8A6214DF20D3002F066F800214DF221
:102960000E3002F061F8E5214DF20F3002F05CF814
:1029700001214DF2103002F057F813214DF21130C1
:1029800002F052F801214DF2123002F04DF85421BC
:102990004DF2133002F048F801214DF2143002F0EC
:1029A00043F882214DF2153002F03EF801214DF23C
:1029B000163002F039F8CA214DF2173002F034F81F
:1029C00002214DF2183002F02FF800214DF219309B
:1029D00002F02AF802214DF21A3002F025F8012106
:1029E0004DF21B3002F020F802214DF21C3002F0B3
:1029F0001BF834214DF21D3002F016F802214DF281
:102A00001E3002F011F867214DF21F3002F00CF871
:102A100002214DF2203002F007F884214DF22130DE
:102A200002F002F802214DF2223001F0FDFFA42154
:102A30004DF2233001F0F8FF02214DF2243001F075
:102A4000F3FFB7214DF2253001F0EEFF02214DF2E8
:102A5000263001F0E9FFCF214DF2273001F0E4FFED
:102A600002214DF2283001F0DFFFDE214DF2293046
:102A700001F0DAFF02214DF22A3001F0D5FFF221F8
:102A80004DF22B3001F0D0FF02214DF22C3001F03D
:102A9000CBFFFE214DF22D3001F0C6FF03214DF298
:102AA0002E3001F0C1FF10214DF22F3001F0BCFF9C
:102AB00003214DF2303001F0B7FF33214DF23130B8
:102AC00001F0B2FF03214DF2323001F0ADFF6D2174
:102AD0004DF2333001F0A8FF00214FF4544001F0D3
:102AE000A3FF33214DF2014001F09EFF00214DF282
:102AF000024001F099FF34214DF2034001F094FFB0
:102B000000214DF2044001F08FFF3A214DF20540C3
:102B100001F08AFF00214DF2064001F085FF4A21B5
:102B20004DF2074001F080FF00214DF2084001F016
:102B30007BFF5C214DF2094001F076FF00214DF250
:102B40000A4001F071FF81214DF20B4001F06CFF52
:102B500000214DF20C4001F067FFA6214DF20D401F
:102B600001F062FF00214DF20E4001F05DFFE52112
:102B70004DF20F4001F058FF01214DF2104001F0DD
:102B800053FF13214DF2114001F04EFF01214DF290
:102B9000124001F049FF54214DF2134001F044FF6F
:102BA00001214DF2144001F03FFF82214DF215400A
:102BB00001F03AFF01214DF2164001F035FFCA2124
:102BC0004DF2174001F030FF02214DF2184001F0A4
:102BD0002BFF00214DF2194001F026FF02214DF29A
:102BE0001A4001F021FF01214DF21B4000E006E3F5
:102BF00001F01AFF02214DF21C4001F015FF3421B3
:102C00004DF21D4001F010FF02214DF21E4001F077
:102C10000BFF67214DF21F4001F006FF02214DF22C
:102C2000204001F001FF84214DF2214001F0FCFE23
:102C300002214DF2224001F0F7FEA4214DF2234083
:102C400001F0F2FE02214DF2244001F0EDFEB72129
:102C50004DF2254001F0E8FE02214DF2264001F040
:102C6000E3FECF214DF2274001F0DEFE02214DF2BE
:102C7000284001F0D9FEDE214DF2294001F0D4FEBA
:102C800002214DF22A4001F0CFFEF2214DF22B40FD
:102C900001F0CAFE02214DF22C4001F0C5FEFE21DA
:102CA0004DF22D4001F0C0FE03214DF22E4001F007
:102CB000BBFE10214DF22F4001F0B6FE03214DF274
:102CC000304001F0B1FE33214DF2314001F0ACFE55
:102CD00003214DF2324001F0A7FE6D214DF2334049
:102CE00001F0A2FE00214FF4554001F09DFE33217A
:102CF0004DF2015001F098FE00214DF2025001F01A
:102D000093FE34214DF2035001F08EFE00214DF26E
:102D1000045001F089FE3A214DF2055001F084FE85
:102D200000214DF2065001F07FFE4A214DF207507E
:102D300001F07AFE00214DF2085001F075FE5C2191
:102D40004DF2095001F070FE00214DF20A5001F0E1
:102D50006BFE81214DF20B5001F066FE00214DF219
:102D60000C5001F061FEA6214DF20D5001F05CFE09
:102D700000214DF20E5001F057FEE5214DF20F50AB
:102D800001F052FE01214DF2105001F04DFE1321D1
:102D90004DF2115001F048FE01214DF2125001F0A8
:102DA00043FE54214DF2135001F03EFE01214DF23D
:102DB000145001F039FE82214DF2155001F034FE1D
:102DC00001214DF2165001F02FFECA214DF217508D
:102DD00001F02AFE02214DF2185001F025FE0021DB
:102DE0004DF2195001F020FE02214DF21A5001F06F
:102DF0001BFE01214DF21B5001F016FE02214DF287
:102E00001C5001F011FE34214DF21D5001F00CFE5A
:102E100002214DF21E5001F007FE67214DF21F50B6
:102E200001F002FE02214DF2205001F0FDFD84214F
:102E30004DF2215001F0F8FD02214DF2225001F037
:102E4000F3FDA4214DF2235001F0EEFD02214DF2DD
:102E5000245001F0E9FDB7214DF2255001F0E4FDC9
:102E600002214DF2265001F0DFFDCF214DF2275017
:102E700001F0DAFD02214DF2285001F0D5FDDE21EE
:102E80004DF2295001F0D0FD02214DF22A5001F0FF
:102E9000CBFDF2214DF22B5001F0C6FD02214DF287
:102EA0002C5001F0C1FDFE214DF22D5001F0BCFD72
:102EB00003214DF22E5001F0B7FD10214DF22F509D
:102EC00001F0B2FD03214DF2305001F0ADFD332190
:102ED0004DF2315001F0A8FD03214DF2325001F0C6
:102EE000A3FD6D214DF2335001F09EFD00214FF402
:102EF000564001F099FD33214DF2016001F094FD3F
:102F000000214DF2026001F08FFD34214DF203608B
:102F100001F08AFD00214DF2046001F085FD3A21A7
:102F20004DF2056001F080FD00214DF2066001F0D8
:102F30007BFD4A214DF2076001F076FD00214DF244
:102F4000086001F071FD5C214DF2096001F06CFD3B
:102F500000214DF20A6001F067FD81214DF20B6006
:102F600001F062FD00214DF20C6001F05DFDA62133
:102F70004DF20D6001F058FD00214DF20E6001F0A0
:102F800053FDE5214DF20F6001F04EFD01214DF2A0
:102F9000106001F049FD13214DF2116001F044FD74
:102FA00001214DF2126001F03FFD54214DF21360FA
:102FB00001F03AFD01214DF2146001F035FD82214E
:102FC0004DF2156001F030FD01214DF2166001F067
:102FD0002BFDCA214DF2176001F026FD02214DF2B2
:102FE000186001F021FD00214DF2196001F01CFD77
:102FF00002214DF21A6001F017FD01214DF21B6014
:1030000001F012FD02214DF21C6001F00DFD342192
:103010004DF21D6001F008FD02214DF21E6001F02D
:1030200003FD67214DF21F6001F0FEFC02214DF20D
:10303000206001F0F9FC84214DF2216001F0F4FCE4
:1030400002214DF2226001F0EFFCA4214DF2236039
:1030500001F0EAFC02214DF2246001F0E5FCB72109
:103060004DF2256001F0E0FC02214DF2266001F0F6
:10307000DBFCCF214DF2276001F0D6FC02214DF29E
:10308000286001F0D1FCDE214DF2296001F0CCFC7A
:1030900002214DF22A6001F0C7FCF2214DF22B60B3
:1030A00001F0C2FC02214DF22C6001F0BDFCFE21BA
:1030B0004DF22D6001F0B8FC03214DF22E6001F0BD
:1030C000B3FC10214DF22F6001F0AEFC03214DF254
:1030D000306001F0A9FC33214DF2316001F0A4FC15
:1030E00003214DF2326001F09FFC6D214DF23360FF
:1030F00001F09AFC55214FF4704001F095FCAA2193
:103100004FF2010001F090FC52214FF2020001F059
:103110008BFC08214FF2030001F086FC00214FF2E6
:10312000040001F081FCCC214FF4314001F07CFC23
:1031300000214BF2011001F077FC05214FF43640DD
:1031400001F072FC70214FF4374001F06DFC7021EA
:103150004BF2017001F068FC01214FF4384001F09E
:1031600063FC03214BF6010001F05EFC03214BF6EA
:10317000020001F059FC03214BF6030001F054FC5E
:1031800002214FF43C4001F04FFC00214BF601407E
:1031900001F04AFC00214BF6024001F045FCD02131
:1031A0004FF4494001F040FC02214CF6011001F0BF
:1031B0003BFC50214CF6021001F036FC50214CF63D
:1031C000031001F031FC50214CF6041001F02CFCEE
:1031D00000214FF4545001F027FC55214FF4685062
:1031E00001F022FC4FF4885001F00EFC782002F030
:1031F0008FFA4FF4245001F007FC01F05BB9FE4850
:10320000808849F2253188427ED147F6F001E520D9
:1032100001F00AFC4FF48071012001F005FC4FF42D
:10322000E061022001F000FC41F23001032001F0D6
:10323000FBFB0021042001F0F7FB40F202210820F3
:1032400001F0F2FB0021092001F0EEFB00210A2031
:1032500001F0EAFB00210C2001F0E6FB00210D202B
:1032600001F0E2FB00210F2001F0DEFB0021102025
:1032700001F0DAFB0721112001F0D6FB002112201A
:1032800001F0D2FB0021132001F0CEFB002107202A
:1032900001F0CAFB41F29061102001F0C5FB40F241
:1032A0002721112001F0C0FB9D21122001F0BCFB61
:1032B0004FF4C851132001F0B7FB2521292001F05C
:1032C000B3FB0D212B2001F0AFFB0721302001F0D3
:1032D000ABFB40F20331312001F0A6FB0321322089
:1032E00001F0A2FB40F20621352001F09DFB0821F0
:1032F000362001F099FB40F20641372001F094FBA3
:103300004FF44171382000E057E001F08DFB0721B8
:10331000392001F089FB40F202613C2001F084FB7E
:1033200008213D2001F080FB0021502001F07CFBB2
:10333000EF21512001F078FB0021522001F074FBB5
:1033400040F23F11532001F06FFB4FF42741602002
:1033500001F06AFB0121612001F066FB00216A2077
:1033600001F062FB0021802001F05EFB0021812042
:1033700001F05AFB0021822001F056FB002183203E
:1033800001F052FB0021842001F04EFB002185203A
:1033900001F04AFB1021902001F046FB4FF4C06180
:1033A000922001F041FB40F23311072001F03CFB79
:1033B0002221002001F038FB1FE78F48808849F266
:1033C000283188427ED141F28F01EC2001F02CFBA4
:1033D00041F23421EF2001F027FB4FF480710120EE
:1033E00001F022FB4FF4E061022001F01DFB41F2ED
:1033F0003001032001F018FB0021042001F014FB30
:1034000040F20221082001F00FFB0021092001F009
:103410000BFB00210A2001F007FB01210C2001F029
:1034200003FB00210D2001F0FFFA00210F2001F025
:10343000FBFA0021102001F0F7FA0721112001F01A
:10344000F3FA0021122001F0EFFA0021132001F01D
:10345000EBFA0121072001F0E7FA322002F032F9FD
:1034600041F29041102001F0DFFA40F227211120B3
:1034700001F0DAFA322002F025F98A21122001F057
:10348000D3FA322002F01EF94FF4D051132001F08C
:10349000CBFA0621292001F0C7FA0D212B2001F0DB
:1034A000C3FA322002F00EF90021202001F0BCFA0C
:1034B0000021212001F0B8FA322002F003F90021A6
:1034C000302000E074E001F0AFFA40F204613120F6
:1034D00001F0AAFA40F20531322001F0A5FA0021EC
:1034E000352001F0A1FA40F60941362001F09CFA9E
:1034F0004FF40171372001F097FA40F20131382082
:1035000001F092FA40F20771392001F08DFA0021A2
:103510003C2001F089FA40F60A213D2001F084FAAE
:10352000322002F0CFF80021502001F07DFAEF2187
:10353000512001F079FA0021522001F075FA40F291
:103540003F11532001F070FA4FF42741602001F041
:103550006BFA0121612001F067FA00216A2001F075
:1035600063FA0021802001F05FFA0021812001F040
:103570005BFA0021822001F057FA0021832001F03C
:1035800053FA0021842001F04FFA0021852001F038
:103590004BFA1021902001F047FA4FF4C0619220BD
:1035A00001F042FA40F23311072001F03DFA24E61F
:1035B0001148808849F2203188427DD10021084697
:1035C00001F032FA4FF48071012001F02DFA4FF42E
:1035D000E061022001F028FA41F23001032001F0FD
:1035E00023FA0021042001F01FFA40F202210820F2
:1035F00001F01AFA002101E07C010020092001F00D
:1036000013FA00210A2001F00FFA01210C2001F029
:103610000BFA00210D2001F007FA00210F2001F024
:1036200003FA322002F04EF840F20111072001F0B7
:10363000FBF9322002F046F84FF48651102001F0D9
:10364000F3F90721112001F0EFF94FF488711220EE
:1036500001F0EAF94FF43061132001F0E5F900219F
:10366000292001F0E1F944F210012B2001F0DCF9EE
:103670000021502001F0D8F9EF21512001F0D4F9B8
:103680000021522001F0D0F940F23F11532001F007
:10369000CBF94FF41C51602001F0C6F901216120E3
:1036A00001F0C2F900216A2001F0BEF9002180205A
:1036B00001F0BAF9002100E031E0812001F0B4F915
:1036C0000021822001F0B0F90021832001F0ACF943
:1036D0000021842001F0A8F90021852001F0A4F93F
:1036E0001021902001F0A0F90021922001F09CF916
:1036F0000121932001F098F94FF48871952001F091
:1037000093F90021972001F08FF90021982001F012
:103710008BF940F27311072001F086F96DE5FE4840
:10372000808849F2313188427DD141F21401E7208D
:1037300001F07AF94FF48071012001F075F94FF42E
:103740000071022001F070F941F23801032001F00C
:103750006BF940F20221082001F066F900210920EE
:1037600001F062F900210A2001F05EF900210C202D
:1037700001F05AF900210D2001F056F900210F2027
:1037800001F052F90021102001F04EF9072111201B
:1037900001F04AF90021122001F046F9002113201E
:1037A00001F042F9C82001F08DFF41F29061102034
:1037B00001F03AF940F22721112001F035F93220C9
:1037C00001F080FF0C21122001F02EF9322001F0CF
:1037D00079FF4FF40061132001F026F9112129200F
:1037E00001F022F90B212B2001F01EF9322001F00B
:1037F00069FF0021202001F017F940F23F1121203C
:1038000001F012F90021302001F00EF94FF483711C
:10381000312001F009F90021322001F005F94FF4BF
:103820000171352000E064E001F0FEF841F20A6128
:10383000362001F0F9F840F20771372001F0F4F872
:103840004FF48371382001F0EFF840F2077139200E
:1038500001F0EAF840F202413C2001F0E5F840F6C0
:103860000F413D2001F0E0F80021502001F0DCF88C
:10387000EF21512001F0D8F80021522001F0D4F8B6
:1038800040F23F11532001F0CFF84FF41C5160205B
:1038900001F0CAF80121612001F0C6F800216A2078
:1038A00001F0C2F80021802001F0BEF80021812043
:1038B00001F0BAF80021822001F0B6F8002183203F
:1038C00001F0B2F80021842001F0AEF8002185203B
:1038D00001F0AAF81021902001F0A6F84FF4C06181
:1038E000922001F0A1F840F23311072001F09CF87A
:1038F00083E48948808845F2084188427ED14FF4AC
:103900008071012001F090F84FF4E061022001F095
:103910008BF841F23001032001F086F800210420E9
:1039200001F082F840F20721082001F07DF8002123
:10393000092001F079F800210A2001F075F8002132
:103940000C2001F071F800210D2001F06DF800212C
:103950000F2001F069F8142001F0B4FE41F2B061CB
:10396000102001F061F80121112001F05DF8012122
:10397000172001F059F84FF49C71122001F054F80F
:103980004FF40061132001F04FF80921292001F0C4
:103990004BF809212A2001F047F80021A42001F06A
:1039A00043F80021502001F03FF8EF21512001F0B1
:1039B0003BF80021522001F037F840F23F1153202C
:1039C00001F032F84FF41C51602001F02DF8012174
:1039D000612001F029F800216A2001F025F800217A
:1039E000802001F021F80021812001F01DF8002144
:1039F000822001F019F80021832000E023E001F08B
:103A000013F80021842001F00FF80021852001F037
:103A10000BF81321902001F007F80021922001F00B
:103A200003F80321932000F0FFFF4FF488719520E5
:103A300000F0FAFF40F27311072000F0F5FF32208A
:103A400001F040FEB8E43448808841F205518842D4
:103A50007ED10021072000F0E7FF322001F032FE86
:103A60004FF48E71122000F0DFFF0121A42000F03E
:103A7000DBFF0F21082000F0D7FF08210A2000F00B
:103A8000D3FF08210D2000F0CFFF40F20771302056
:103A900000F0CAFF0721312000F0C6FF40F20361A9
:103AA000322000F0C1FF4FF4E061332000F0BCFF92
:103AB00040F20221342000F0B7FF0221352000F04F
:103AC000B3FF41F60F71362000F0AEFF40F20771F0
:103AD000372000F0A9FF0021382000F0A5FF0021C9
:103AE000392000F0A1FF40F207713A2000F09CFF5E
:103AF00000213B2000F098FF07213C2000F094FFBC
:103B000000213D2000F090FF322001F0DBFD01217B
:103B1000072000F089FF01E07C010020012117202F
:103B200000F082FF322001F0CDFD4FF4BD51102096
:103B300000F07AFF40F21721112000F075FF4FF4DA
:103B40008F71122000F070FF4FF47061132000E0BD
:103B500097E000F069FF00212A2000F065FF0A21AC
:103B6000292000F061FF4FF49F71122000F05CFFEC
:103B70000021502000F058FFEF21512000F054FFA9
:103B80000021522000F050FF40F23F11532000F07E
:103B90004BFF4FF41C51602000F046FF01216120D3
:103BA00000F042FF00216A2000F03EFF002180204B
:103BB00000F03AFF0021812000F036FF0021822032
:103BC00000F032FF0021832000F02EFF002184202E
:103BD00000F02AFF0021852000F026FF132190200D
:103BE00000F022FF4FF44071922000F01DFF0521EC
:103BF000932000F019FF0021952000F015FF00210F
:103C0000972000F011FF0021982000F00DFF4FF4E5
:103C10008071012000F008FF4FF4E061022000F005
:103C200003FF41F23801032000F0FEFE00210420D2
:103C300000F0FAFE00210C2000F0F6FE00210F201B
:103C400000F0F2FE0021202000F0EEFE00212120F5
:103C500000F0EAFE2121072000F0E6FE142001F02A
:103C600031FD6121072000F0DFFE142001F02AFD64
:103C700040F27311072000F0D7FE142001F022FD5E
:103C800095E4FE4880884BF2055188427ED10021A0
:103C9000084600F0C9FE0021084600F0C5FE0021DC
:103CA000084600F0C1FE0021084600F0BDFE0121DB
:103CB000A42000F0B9FE142001F004FD4FF41C51C3
:103CC000602000F0B1FE40F20221082000F0ACFEBE
:103CD0004FF40571302000F0A7FE43F2157131203A
:103CE00000F0A2FE40F20461322000F09DFE40F69A
:103CF0001661332000F098FE42F21121342000F0CA
:103D000093FE4FF4A851352000F08EFE48F2075183
:103D1000362000F089FE41F20741372000F084FE92
:103D200041F20341382000F07FFE2021392000F0CD
:103D30007BFE1A21902000F077FE0021102000F079
:103D400073FE0721112000F06FFE0021122000F009
:103D50006BFE0021132000F067FE142001F0B2FC7E
:103D60004FF4E661102000F05FFE40F237111120A1
:103D700000F05AFE142001F0A5FC4FF4DC71122073
:103D800000F052FE142001F09DFC00E083E04FF4AF
:103D90007061132000F048FE80212A2000F044FECC
:103DA0004821292000F040FE142001F08BFC4FF444
:103DB0008071012000F038FE4FF4E061022000F035
:103DC00033FE41F23801032000F02EFE40F20221C2
:103DD000082000F029FE00210A2000F025FE002125
:103DE0000C2000F021FE00210D2000F01DFE3021EE
:103DF0000E2000F019FE0021502000F015FEEF21EA
:103E0000512000F011FE0021522000F00DFE40F282
:103E10003F11532000F008FE4FF41C51602000F0C9
:103E200003FE0121612000F0FFFD00216A2000F067
:103E3000FBFD1121902000F0F7FD4FF4C0619220AE
:103E400000F0F2FD40F20241932000F0EDFD02216E
:103E5000942000F0E9FD142001F034FC012107203A
:103E600000F0E2FD142001F02DFC6121072000F09C
:103E7000DBFD40F27311072000F0D6FD0021202069
:103E800000F0D2FD0021212000F0CEFD22210020F3
:103E900000F0CAFD0EE3794880884CF20551884253
:103EA0007ED10021084600F0BFFD0021084600F049
:103EB000BBFD142001F006FC0021084600F0B4FD13
:103EC0000021084600F0B0FD0021084600F0ACFDDE
:103ED0000021084600F0A8FD0121A42000F0A4FD67
:103EE000142001F0EFFB4FF41C51602000F09CFD0A
:103EF00040F60601082000F097FD40F203713020E3
:103F000000F092FD0121312000F08EFD04213220CD
:103F100000F08AFD4FF48171332000F085FD4FF4ED
:103F20004071342000F080FD40F20311352000F094
:103F30007BFD1F21362000F077FD40F20371372012
:103F400000F072FD0121382000F06EFD04213920BF
:103F500000F06AFD1521902000F066FD4FF48261AB
:103F6000102000F061FD40F24721112000F05CFDBF
:103F70004FF4DE71122000F057FD4FF46061132002
:103F800000F052FD782001F09DFB4FF4807101207C
:103F900000F04AFD4FF40071022000F045FD00E002
:103FA00050E041F23001032000F03EFD08210A20DC
:103FB00000F03AFD00210C2000F036FD20210E20FB
:103FC00000F032FD00210F2000F02EFD0021202006
:103FD00000F02AFD0021212000F026FD3D212A20AD
:103FE00000F022FD142001F06DFB2D21292000F0AE
:103FF0001BFD0021502000F017FD4DF2EF01512074
:1040000000F012FD0021522000F00EFD40F23F11A1
:10401000532000F009FD0021612000F005FD002182
:104020006A2000F001FD4FF44071922000F0FCFC8A
:104030000521932000F0F8FC4FF48071072000F078
:10404000F3FC37E20D48808844F2315188427CD13C
:104050000121002000F0E8FC0A2001F033FB41F2CE
:104060002861102000F0E0FC0E21122000F0DCFCA2
:1040700040F63921132000F0D7FC01E07C0100203C
:104080000A2001F01FFB4021112000F0CDFC50213F
:10409000152000F0C9FC0A2001F014FB1E2112209B
:1040A00000F0C2FC0A2001F00DFB4FF4B1511020CA
:1040B00000F0BAFC42F63921132000F0B5FC0A20CA
:1040C00001F000FB4FF48071012000F0ADFC4FF4D3
:1040D0004071022000F0A8FC41F23801032000F0FA
:1040E000A3FC40F20221082000F09EFC08210A20D7
:1040F00000F09AFC0021302000F096FC40F20241D2
:10410000312000F091FC4FF48371322000F08CFCE0
:1041100040F20351332000F087FC4FF482713420C9
:1041200000F082FC40F20131352000F07DFC40F2CD
:104130000771362000F078FC40F20531372000F09E
:1041400073FC4FF40271382000E040E000F06CFC9A
:1041500040F60B71392000F067FC0221412000F08D
:1041600063FC4FF41C51602000F05EFC01216120D3
:1041700000F05AFC4FF40471902000F055FC4FF40D
:104180008571922000F050FC0421932000F04CFC3B
:104190004FF48071A02000F047FC0121072000F0BF
:1041A00043FC2121072000F03FFC2321072000F0E1
:1041B0003BFC3321072000F037FC40F2331107208D
:1041C00000F032FC0021A02000F02EFC72E1BF487C
:1041D000808844F2355188427ED13021152000F08C
:1041E00023FC10219A2000F01FFC2021112000F058
:1041F0001BFC43F22841102000F016FC0221122083
:1042000000F012FC41F23801132000F00DFC2820D0
:1042100001F058FA1221084600F006FC282001F0AF
:1042200051FA43F22041102000F0FEFB43F2380126
:10423000132000F0F9FB462001F044FA0021302061
:1042400000F0F2FB40F20241312000F0EDFB40F2C1
:104250000731322000F0E8FB4FF44171332000F0C9
:10426000E3FB0421342000F0DFFB40F20141352064
:1042700000F0DAFB40F20771362000F0D5FB40F287
:104280000531372000F0D0FB4FF4C261382000F038
:10429000CBFB4FF4C261392000F0C6FB4FF48071B4
:1042A000012000F0C1FB4FF44071022000F0BCFB84
:1042B00041F23001032000F0B7FB40F6080108206E
:1042C00000F0B2FB08210A2000F0AEFB4FF41C51B5
:1042D000602000F0A9FB00E031E00121612000F046
:1042E000A3FB4FF49F71902000F09EFB4FF4807170
:1042F000922000F099FB4FF48071932000F094FB22
:104300004FF44051A02000F08FFB1021A32000F0BB
:104310008BFB0121072000F087FB2121072000F003
:1043200083FB2321072000F07FFB3321072000F0CF
:104330007BFB40F23311072000F076FBBAE06348C4
:10434000808841F663118842F8D1E22000F05CFBDE
:10435000232000F053FB022000F050FB042000F06B
:104360004DFB642001F0D4F9E02000F04DFB01206A
:1043700000F044FB0A2001F0A5F9E02000F044FB26
:10438000032000F03BFB0C2001F09CF9012000F021
:104390003BFB0A2001F096F9E62000F035FB0320F4
:1043A00000F02CFBFF2000F029FBFF2000F026FB93
:1043B000B02000F029FB202000F020FB002000F0BE
:1043C0001DFB032000F01AFB40F21F3000F016FB2B
:1043D000012000F013FB40F2DF1000F00FFB002083
:1043E00000F00CFBB42000F00FFB042000F006FBF3
:1043F00040F21F4000F002FB002000F0FFFAD22044
:1044000000F0FCFA002000F0F9FA002000F0F6FAC3
:10441000002000F0F3FA002000F0F0FAB62000F0DF
:10442000F3FA022000F0EAFA4FF4037000F0E6FA23
:10443000002000F0E3FA222000F0E0FA092000F06A
:10444000DDFA002000F0DAFA002000F0D7FAF020C0
:1044500000F0DAFA032000F0D1FA292000F0D4FAB3
:10446000D02000F0D1FA002000F0C8FABE2000F001
:10447000CBFA052000F0C2FAFE2000F0BFFA0120BE
:1044800000F0BCFAFF2000F0B9FA002000F0B6FA04
:10449000B82000F0B9FA0F2000F0B0FA012000F0C7
:1044A000ADFABA2000F0B0FA012000F0A7FA6420BB
:1044B00000F026F80020FCF777FB01200449086093
:1044C0004FF6FF70FCF73AFB1FB000BD7C010020E7
:1044D0008081214208B5034800880090BDF80000A3
:1044E00008BD00000008006C10B50446204600F02E
:1044F0008BFA052001F00CF9FFF7ECFF10BD00006E
:104500002DE9F0470446BE2000F07EFA052000F0B9
:1045100075FA204601F0DDF907464FF066320C4B84
:1045200001F0EAF9054601F0A7F91FFA80F94846BB
:1045300000F064FA012000F061FAFF2000F05EFA5A
:10454000002000F05BFA002000F058FABDE8F08788
:104550006666044070B5044600230026B74880799B
:1045600001280BD1B548808846F60401884205D061
:10457000B248808841F66311884208D1AF488079FB
:10458000F0B9AE48808841F66311884218D1082CF2
:1045900015D2DFE804F00406080A0C0E10120624F7
:1045A0000DE007240BE0042409E0052407E00124C2
:1045B00005E0002403E0032401E0022400BF00BF63
:1045C0009E48808849F24131884217D09B488088B4
:1045D00046F60401884211D09848808845F210318F
:1045E00088420BD09548808845F21051884205D00A
:1045F0009248808841F6631188427DD1082C1CD2F4
:10460000DFE804F00406090C0F12151800BF14E0CF
:1046100043F0800311E043F040030EE043F0C00399
:104620000BE043F0200308E043F0600305E043F0B3
:10463000A00302E043F0E00300BF00BF7F48808892
:1046400045F21051884202D14FF4585600E0362608
:104650007A48808845F2103188420DD077488088AA
:1046600045F21051884207D07448808841F66311A2
:10467000884201D043F008037048808846F6040160
:10468000884201D143F002031946304600F0CCF9CC
:104690006A48808841F6631188421DD003F02000EB
:1046A00068B16648008865494988884214DA6348D9
:1046B0000588408861490880084645800CE05F48CD
:1046C00000885E494988884206DD5C480588408844
:1046D0005A490880084645805848808845F210515C
:1046E000884254D15549488900F08EF9002000F0E5
:1046F00085F95249498900E078E0491C88B200F008
:1047000083F9002000F07AF94C494989891C88B264
:1047100000F07AF949490988491EC1F30F2000F0D9
:104720006DF946494989C91C88B200F06DF94349C1
:104730000978491EC8B200F061F94049888900F043
:1047400063F9002000F05AF93C498989491C88B274
:1047500000F05AF9002000F051F938498989891C84
:1047600088B200F051F935494988491EC1F30F203C
:1047700000F044F931498989C91C88B200F044F934
:104780002E498978491EC8B200F038F955E02B4906
:10479000488900F039F9002000F030F9002000F0DD
:1047A0002DF926490988491EC1F30F2000F026F98A
:1047B00022490978491EC8B200F020F91F498889AA
:1047C00000F022F9002000F019F9002000F016F99D
:1047D0001A494988491EC1F30F2000F00FF9174903
:1047E0008978491EC8B200F009F926E0082C1CD2CD
:1047F000DFE804F004070A0D0F12151843F0300328
:1048000013E043F0100310E043F020030DE000BF7D
:104810000BE043F0380308E043F0280305E043F0E1
:10482000180302E043F0080300BF00BF032643F46F
:1048300080531946304600F0F7F870BD7C01002027
:1048400010B503460C466748808849F241318842DA
:1048500005D06448808845F21031884214D16149FE
:10486000488900F0D1F8181200F0C8F8D8B200F06A
:10487000C5F85C49888900F0C7F8201200F0BEF83E
:10488000E0B200F0BBF8ABE05648808846F6040181
:1048900088421DD153488079012804D151480088AD
:1048A000401EC01A83B24F49488900F0ADF8181273
:1048B00000F0A4F8D8B200F0A1F84A49888900F0C5
:1048C000A3F8201200F09AF8E0B200F097F887E021
:1048D0004448808841F66311884247D14148807935
:1048E000A8B940480088401EC01A83B23D49488993
:1048F00000F08AF8002000F081F8002000F07EF837
:10490000181200F07BF8D8B200F078F816E03549BC
:10491000488900F079F8181200F070F8D8B200F069
:104920006DF830490988491EC1F30F2000F066F880
:104930002C490978491EC8B200F060F829498889D5
:1049400000F062F8201200F059F8E0B200F056F8DA
:1049500024494988491EC1F30F2000F04FF821492E
:104960008978491EC8B200F049F839E01D488088AE
:1049700045F21051884220D11A49488900F044F884
:10498000181200F03BF817494989491C88B200F019
:104990003BF8D8B200F032F81249888900F034F8B8
:1049A000201200F02BF80F498989491C88B200F0C9
:1049B0002BF8E0B200F022F812E00A4880790128D2
:1049C00004D108480088401EC01A83B205494889AE
:1049D000194600F029F803498889214600F024F897
:1049E00010BD00007C010020024A1080024A1180A4
:1049F00070470000240000202600002001490880A4
:104A0000704700000008006C0149088070470000F2
:104A1000FE07006C024800890249088070470000C8
:104A20007C010020FE07006C024A1080921C11805D
:104A300070470000FE07006C1CB50121482000F003
:104A40008FF82020ADF8040003208DF80600102018
:104A50008DF8070001A90C48FBF747FF20210A4801
:104A6000FBF7D0FF2020ADF8000003208DF80200F6
:104A700010208DF8030069460448FBF736FF20211B
:104A80000248FBF7BFFF1CBD000C014000180140AD
:104A900000BFFEE77047000070B5002100230F2221
:104AA000C47804B3154C246804F4E064C4F5E064ED
:104AB000210AC1F10403CA40447804FA03F184785E
:104AC0001440214309010E4C0678A155047804F0E6
:104AD0001F050124AC4005786D11AD0005F1E025FE
:104AE000C5F8004109E0047804F01F050124AC403A
:104AF000044D0678761145F8264070BD0CED00E0B7
:104B000000E400E080E100E002490143024A116054
:104B1000704700000000FA050CED00E0704700004F
:104B200029B1064A52690243044B5A6104E0034A20
:104B300052698243014B5A617047000000100240E5
:104B400029B1064AD2690243044BDA6104E0034A00
:104B5000D2698243014BDA617047000000100240C5
:104B600029B1064A92690243044B9A6104E0034A60
:104B700092698243014B9A61704700000010024025
:104B800030B500210022002400232D4D6D6805F072
:104B90000C0121B1042905D0082923D105E0294DB4
:104BA000056022E0274D05601FE0254D6D6805F486
:104BB0007012234D6D6805F48034022505EB924296
:104BC0001CB9214D554305600BE01D4D6D6805F482
:104BD00000351DB11C4D5543056002E0194D55438C
:104BE000056002E0174D056000BF00BF144D6D6801
:104BF00005F0F0010909154D6B5C0568DD40456065
:104C00000F4D6D6805F4E061090A104D6B5C456855
:104C1000DD4085600A4D6D6805F46051C90A0B4D91
:104C20006B5C4568DD40C560054D6D6805F440412D
:104C3000890B074D6B5CC568B5FBF3F5056130BDAD
:104C40000010024000127A0000093D003B000020E5
:104C50004B000020704710B500F002F810BD0000B6
:104C60000CB50020019000903348006840F480307B
:104C70003149086000BF3048006800F400300090FF
:104C80000198401C0190009818B90198B0F5A06FE8
:104C9000F1D12948006800F4003010B101200090E3
:104CA00001E0002000900098012843D123480068CB
:104CB00040F01000214908600846006820F0030019
:104CC00008600846006840F0020008601A48406822
:104CD000194948600846406848600846406840F402
:104CE000806048600846406820F47C1048600846B0
:104CF000406840F4E81048600846006840F0807062
:104D0000086000BF0C48006800F000700028F9D06F
:104D10000948406820F00300074948600846406899
:104D200040F00200486000BF0348406800F00C00FB
:104D30000828F9D10CBD00000010024000200240FC
:104D4000042808D14FF0E021096941F004014FF037
:104D5000E022116107E04FF0E021096921F0040130
:104D60004FF0E022116170477047000010B5134802
:104D7000006840F001001149086008464068104989
:104D800008400E494860084600680E4908400B4933
:104D900008600846006820F48020086008464068E3
:104DA00020F4FE0048604FF41F008860FFF753FFB7
:104DB0004FF000600449086010BD00000010024080
:104DC0000000FFF8FFFFF6FE08ED00E0F0B50C462E
:104DD000154600220021068C4FF6FE773E400684E1
:104DE000028B018C4FF60C7632407E1C06EA0316CD
:104DF0002E433243104EB0420ED0104EB0420BD074
:104E0000B0F1804F08D00E4EB04205D00D4EB042EA
:104E100002D00D4EB04206D14FF6FD76314044F03F
:104E20000106314305E04FF6F576314044F00106C6
:104E3000314302830184F0BD002C01400034014065
:104E40000004004000080040000C0040F0B50C4693
:104E50001546002200210026078C4FF6EF7C07EA5A
:104E60000C070784028B018C4FF6FF7707EA0416C4
:104E700040F6FF473A404FF6FF7707EA03373A43D9
:104E80004FF6FF7707EA05273A43114FB8420ED095
:104E9000104FB8420BD0B0F1804F08D00E4FB8423F
:104EA00005D00E4FB84202D00D4FB84206D14FF692
:104EB000DF77394046F01007394305E04FF65F775A
:104EC000394044F01007394302830184F0BD0000EB
:104ED000002C014000340140000400400008004064
:104EE000000C0040F0B50C461546002200210026BB
:104EF000078C4FF6FF6C07EA0C070784828B018C46
:104F00004FF6FF7707EA04264FF60C773A404FF644
:104F1000FF7707EA03172F433A43114FB8420ED0E9
:104F2000104FB8420BD0B0F1804F08D00E4FB842AE
:104F300005D00E4FB84202D00D4FB84206D14FF601
:104F4000FF57394046F48077394305E04FF2FF5769
:104F5000394044F48077394382830184F0BD0000F6
:104F6000002C0140003401400004004000080040D3
:104F7000000C0040F0B50C4615460022002100262A
:104F8000078C4EF6FF7C07EA0C070784828B018CA6
:104F90004FF6FF7707EA043640F6FF473A404FF6F0
:104FA000FF7707EA05273A434FF6FF7707EA03370B
:104FB0003A43114FB8420ED0104FB8420BD0B0F167
:104FC000804F08D00E4FB84205D00E4FB84202D0E5
:104FD0000D4FB84206D14DF6FF77394046F4805761
:104FE000394305E047F6FF57394044F480573943C9
:104FF00082830184F0BD0000002C01400034014098
:105000000004004000080040000C004010B50121E1
:10501000084800F087F858B10121064800F070F800
:105020000548006808B9012000E000200249086036
:1050300010BD0000000400409401234210B52D482B
:10504000006800F0004000284ED101212A4800F0FD
:1050500069F8E0B12748006800F08040B8B1254801
:10506000006820F040406FF0404188420AD121485A
:10507000006840F000401F4908604FF6FF701F496C
:10508000088004E01B480068401C1A490860082199
:10509000194800F047F838B31648006800F080401F
:1050A00078B11448006840F0004012490860124886
:1050B00000F035F81149088000210F4800F0A3F8EE
:1050C00012E000200B4908600C49088000210A48C2
:1050D00000F0A6F80748006840F0804005490860E5
:1050E0000221054800F08FF80921034800F008F874
:1050F00010BD000018000020000C00401C00002023
:10510000CA430282704721B1028842F00102028044
:1051100004E002884FF6FE731A4002807047014691
:10512000888F704730B50246002000230024158A7E
:1051300005EA0103958905EA010413B10CB10120C8
:1051400000E0002030BD000070B505460C46244844
:1051500085420ED0234885420BD0B5F1804F08D050
:105160002148854205D02148854202D02048854209
:1051700000D100E000BF208850B92389A28861884F
:105180002846FFF723FEE188284600F04BF825E08B
:10519000208804280AD12389A28861882846FFF73D
:1051A00055FEE188284600F046F817E020880828D8
:1051B0000AD12389A28861882846FFF793FEE188F7
:1051C000284600F045F809E02389A288618828462E
:1051D000FFF7D0FEE188284600F043F870BD0000DC
:1051E000002C014000340140000400400008004051
:1051F000000C00401AB183890B43838102E083894C
:105200008B43838170470A460021018C4FF6FF5380
:1052100019404FF6FF7303EA0223194301847047D4
:1052200081847047028B4FF6F3731A400283028B1E
:105230000A4302837047028B4FF2FF331A40028306
:10524000028B4FF6FF7303EA01231A430283704770
:10525000828B4FF6F3731A408283828B0A438283D8
:105260007047828B4FF2FF331A408283828B4FF656
:10527000FF7303EA01231A438283704700220288E6
:105280001D4B98420ED01D4B98420BD0B0F1804F71
:1052900008D01B4B984205D01A4B984202D01A4BAB
:1052A000984204D14FF68F731A404B881A43174B1C
:1052B000984207D0164B984204D04FF6FF431A404D
:1052C000CB881A4302808B8883850B8803850A4B21
:1052D00098420BD0094B984208D00E4B984205D00B
:1052E0000D4B984202D00D4B984201D10B7A0386A8
:1052F0000123838270470000002C014000340140EC
:105300000004004000080040000C00400010004075
:1053100000140040004001400044014000480140AA
:1053200010B540F225512C4800F079F8002851D0F2
:10533000294800F02FF9C4B2402C0AD10020274997
:105340000880012026490870C8212648FBF77DF80F
:1053500040E02348007800283CD02048008800F432
:10536000004018BB1D48008800F48040B0B10A2CF2
:1053700005D0002019490880194908702AE017480B
:10538000008840F4004015490880C8221549164895
:10539000FBF716F80020124908701BE00D2C06D10F
:1053A0000E48008840F480400C49088012E00B4809
:1053B0000088C0F30D000B490C5408480088401CBD
:1053C0000649088008460088C72803DD00200880B9
:1053D0000349087010BD000000380140380000206B
:1053E0003A0000208A010020B400002021B1828907
:1053F00042F40052828104E082894DF6FF731A4024
:105400008281704702460020B1F5007F00D100BFC5
:1054100013880B400BB1012000E00020704770B5ED
:105420000246002400230025002040F66A16B142FF
:1054300000D100BFC1F3421501F01F03012606FA97
:1054400003F3012D02D19689334006E0022D02D1EB
:10545000168A334001E0968A33400C12012606FA80
:1054600004F41688344013B10CB1012000E0002090
:1054700070BDF0B50346002400260025002040F64C
:105480006A17B94200D100BF1846C1F3421401F0B7
:105490001F06012707FA06F5012C01D10C3004E0A4
:1054A000022C01D1103000E014301AB107682F43EC
:1054B000076002E00768AF430760F0BD2DE9F047E1
:1054C00086B005460E460024A24600BFA14600272E
:1054D000B08900B100BF2F462C8A4CF6FF70044003
:1054E000F08804432C82AC894EF6F3100440B08857
:1054F00031890843718908430443AC81AC8A4FF673
:10550000FF400440B0890443AC8201A8FFF738FB98
:105510001F48874202D1DDF810A001E0DDF80CA0A1
:10552000A88900F4004040B10AEBCA0000EB0A1061
:1055300031684900B0FBF1F807E00AEBCA0000EB64
:105540000A1031688900B0FBF1F86420B8FBF0F074
:1055500004012009642101FB1089A88900F400409E
:1055600040B1322000EBC900B0FBF1F000F00700C1
:10557000044308E0322000EB09106421B0FBF1F095
:1055800000F00F0004432C8106B0BDE8F087000056
:105590000038014001468888C0F30800704730B5E4
:1055A00004460D46C5F30800A08000BF40212046F8
:1055B000FFF728FF0128F9D130BD0000F8B50546F6
:1055C000002000902648006800F094FA2549086001
:1055D00055212846FFF7E3FF11212846FFF7DFFF9B
:1055E000AA212846FFF7DBFF55212846FFF7D7FF02
:1055F000AA212846FFF7D3FFFF212846FFF7CFFF58
:1056000001212846FFF7CBFF01212846FFF7C7FFFE
:1056100000241DE0134850F8240000909DF800601D
:1056200031462846FFF7BBFF9DF80160314628460A
:10563000FFF7B5FF9DF8026031462846FFF7AFFF40
:105640009DF8036031462846FFF7A9FF601CC4B2ED
:10565000012CDFDB01212846FFF7A1FFF8BD000088
:105660002C0000201400002000BFFEE730380A287C
:1056700001D2012070470020704700BF7047000032
:1056800010B56FF00400FFF75BFB0A4800680A4999
:10569000B0FBF1F0094908700846007800EB4001C2
:1056A000C1EBC0104FF6FF7101EAC0000449088049
:1056B00010BD00000000002000127A003000002021
:1056C000320000200146114A12884A434FF0E0237D
:1056D0005A6100229A611A46126942F001021A6167
:1056E00000BF4FF0E022106900F001021AB100F48F
:1056F0008032002AF5D04FF0E022126922F0010238
:105700004FF0E0231A6100229A61704732000020B6
:105710000146114A12784A434FF0E0235A610022B1
:105720009A611A46126942F001021A6100BF4FF0F5
:10573000E022106900F001021AB100F48032002A60
:10574000F5D04FF0E022126922F001024FF0E02381
:105750001A6100229A6170473000002000BF054A9C
:10576000128802F04002002AF9D0C2B2014B1B1D80
:105770001A80704700380140FFF782FFFBF7B2F94B
:10578000FAF79AFFFFF758F94FF4A060FFF7BCF95A
:105790004FF4E1320321084600F01CF84FF4E132E7
:1057A00001210320FAF7A4FF4FF47A7301220021AC
:1057B0000220FBF729F9FBF7D7FA4FF6FF714FF4F8
:1057C0007840FFF711F902E00148FFF7F7FEFBE729
:1057D000004C004070B586B006460C4615460121C7
:1057E00044F20400FFF7BCF94FF40070ADF8140068
:1057F00003208DF8160018208DF8170005A91C4805
:10580000FBF773F84FF48060ADF8140004208DF8B6
:10581000170005A91648FBF768F825208DF8000049
:105820008DF801608DF8024001208DF80300684674
:10583000FFF732F901950020ADF80800ADF80A0035
:10584000ADF80C00ADF810000C20ADF80E0001A969
:105850000848FFF733FE012240F225510548FFF7C3
:1058600008FE01210348FFF7C1FD06B070BD00002E
:1058700000080140003801404FEA1153A3F580634E
:10588000D3F11E03A8BFD3F1200C08DB4FF0004278
:1058900042EAC12252EA505232FA03F070470942FA
:1058A0000BD4102BC4BF0020704703F5787CBCF1EB
:1058B000FF3F05D04FF0FF3070474FF000007047BA
:1058C00070B500F0C3F800BF4992248000207047F3
:1058D000F0E7B0FA80F310FA03F10AD0C3F11D0328
:1058E00003F580634FEA41504FEA035202EBD121A6
:1058F00070474FF000007047DFF848C170B51CEAF0
:10590000111E1EBF1CEA13159EEA0C0F95EA0C0F20
:1059100000F06F8081EA030423EA4C134EEAD47E40
:1059200021EA4C1141F4801143F48013AE44A1FBF1
:10593000024CA0FB0365AEF17F7E361955EB0C05DA
:10594000A1FB034C4CF10003A0FB021C16EB0C0660
:10595000654153F10003094218BF46F0010613F4F4
:10596000007F0BD14FEA03314FEA0530340341EA9F
:10597000155140EA16506FF003020AE04FEAC321C6
:105980004FEAC520F40241EA555140EA56506FF003
:10599000020202EB2E4201EB025585EACE710AD0DB
:1059A0005FEA440C18BF24F0004450F1000041F1BC
:1059B000000120EAD47040F2FE7C624500D270BD46
:1059C000A84214BF4FF080444FF04044002E08BF5F
:1059D0000024BEF1806FA8BFA1F1C041BDE87040B6
:1059E00080F282804FF0000001F1C04101F00041DF
:1059F00070479EEA0C0F0CEA131518BF95EA0C0FBE
:105A000006D04FF0000081EA030E0EF0004170BD99
:105A100000F01CF88900013E00F007B800F009B85A
:105A20004FEA430C5FEA5C5C08D081EA030100F0B6
:105A30005BB84FEA410C5FEA5C5CF6D14FF00000C6
:105A4000014970470000FF070000F87F0EF1020EC9
:105A50002EF0030E5EF8046B364205D4012A43EBA8
:105A6000030515F5001F12D8012841EB010C1CF5A8
:105A7000001F0CD80ED14FEAD17C15F5001F0CEB9E
:105A80004C0C0CF1020C08BF4CEBD37C04E04FF043
:105A9000080C01E04FEAD37C0CEB4C0526FA05F626
:105AA00006F00706B6F1040C06D20EEB860CBDE834
:105AB00070404CF0010C6047DFE80CF0090B02026B
:105AC0004FF000414FF00000A1F5002170BD1946D4
:105AD0001046012851EB010418BFD4F5001484BF0F
